{
  "_format": "hh-sol-artifact-1",
  "contractName": "NFTMarketplace",
  "sourceName": "contracts/NFTMarketplace.sol",
  "abi": [
    {
      "inputs": [],
      "stateMutability": "nonpayable",
      "type": "constructor"
    },
    {
      "anonymous": false,
      "inputs": [
        {
          "indexed": true,
          "internalType": "address",
          "name": "owner",
          "type": "address"
        },
        {
          "indexed": true,
          "internalType": "address",
          "name": "approved",
          "type": "address"
        },
        {
          "indexed": true,
          "internalType": "uint256",
          "name": "tokenId",
          "type": "uint256"
        }
      ],
      "name": "Approval",
      "type": "event"
    },
    {
      "anonymous": false,
      "inputs": [
        {
          "indexed": true,
          "internalType": "address",
          "name": "owner",
          "type": "address"
        },
        {
          "indexed": true,
          "internalType": "address",
          "name": "operator",
          "type": "address"
        },
        {
          "indexed": false,
          "internalType": "bool",
          "name": "approved",
          "type": "bool"
        }
      ],
      "name": "ApprovalForAll",
      "type": "event"
    },
    {
      "anonymous": false,
      "inputs": [
        {
          "indexed": true,
          "internalType": "address",
          "name": "previousOwner",
          "type": "address"
        },
        {
          "indexed": true,
          "internalType": "address",
          "name": "newOwner",
          "type": "address"
        }
      ],
      "name": "OwnershipTransferred",
      "type": "event"
    },
    {
      "anonymous": false,
      "inputs": [
        {
          "indexed": false,
          "internalType": "uint256",
          "name": "tokenId",
          "type": "uint256"
        },
        {
          "indexed": false,
          "internalType": "address",
          "name": "owner",
          "type": "address"
        },
        {
          "indexed": false,
          "internalType": "address",
          "name": "seller",
          "type": "address"
        },
        {
          "indexed": false,
          "internalType": "uint256",
          "name": "price",
          "type": "uint256"
        },
        {
          "indexed": false,
          "internalType": "bool",
          "name": "listed",
          "type": "bool"
        }
      ],
      "name": "TokenListed",
      "type": "event"
    },
    {
      "anonymous": false,
      "inputs": [
        {
          "indexed": true,
          "internalType": "address",
          "name": "from",
          "type": "address"
        },
        {
          "indexed": true,
          "internalType": "address",
          "name": "to",
          "type": "address"
        },
        {
          "indexed": true,
          "internalType": "uint256",
          "name": "tokenId",
          "type": "uint256"
        }
      ],
      "name": "Transfer",
      "type": "event"
    },
    {
      "inputs": [
        {
          "internalType": "address",
          "name": "to",
          "type": "address"
        },
        {
          "internalType": "uint256",
          "name": "tokenId",
          "type": "uint256"
        }
      ],
      "name": "approve",
      "outputs": [],
      "stateMutability": "nonpayable",
      "type": "function"
    },
    {
      "inputs": [
        {
          "internalType": "address",
          "name": "owner",
          "type": "address"
        }
      ],
      "name": "balanceOf",
      "outputs": [
        {
          "internalType": "uint256",
          "name": "",
          "type": "uint256"
        }
      ],
      "stateMutability": "view",
      "type": "function"
    },
    {
      "inputs": [
        {
          "internalType": "uint256",
          "name": "_tokenId",
          "type": "uint256"
        }
      ],
      "name": "buyToken",
      "outputs": [],
      "stateMutability": "payable",
      "type": "function"
    },
    {
      "inputs": [
        {
          "internalType": "string",
          "name": "_tokenURI",
          "type": "string"
        },
        {
          "internalType": "uint256",
          "name": "_price",
          "type": "uint256"
        }
      ],
      "name": "createToken",
      "outputs": [],
      "stateMutability": "payable",
      "type": "function"
    },
    {
      "inputs": [],
      "name": "getAllNFTs",
      "outputs": [
        {
          "components": [
            {
              "internalType": "uint256",
              "name": "tokenId",
              "type": "uint256"
            },
            {
              "internalType": "address",
              "name": "owner",
              "type": "address"
            },
            {
              "internalType": "address",
              "name": "seller",
              "type": "address"
            },
            {
              "internalType": "uint256",
              "name": "price",
              "type": "uint256"
            },
            {
              "internalType": "bool",
              "name": "listed",
              "type": "bool"
            }
          ],
          "internalType": "struct NFTMarketplace.ListedToken[]",
          "name": "",
          "type": "tuple[]"
        }
      ],
      "stateMutability": "view",
      "type": "function"
    },
    {
      "inputs": [
        {
          "internalType": "uint256",
          "name": "tokenId",
          "type": "uint256"
        }
      ],
      "name": "getApproved",
      "outputs": [
        {
          "internalType": "address",
          "name": "",
          "type": "address"
        }
      ],
      "stateMutability": "view",
      "type": "function"
    },
    {
      "inputs": [],
      "name": "getCurrentTokenId",
      "outputs": [
        {
          "internalType": "uint256",
          "name": "",
          "type": "uint256"
        }
      ],
      "stateMutability": "view",
      "type": "function"
    },
    {
      "inputs": [],
      "name": "getListPrice",
      "outputs": [
        {
          "internalType": "uint256",
          "name": "",
          "type": "uint256"
        }
      ],
      "stateMutability": "view",
      "type": "function"
    },
    {
      "inputs": [
        {
          "internalType": "uint256",
          "name": "_tokenId",
          "type": "uint256"
        }
      ],
      "name": "getListedTokenById",
      "outputs": [
        {
          "components": [
            {
              "internalType": "uint256",
              "name": "tokenId",
              "type": "uint256"
            },
            {
              "internalType": "address",
              "name": "owner",
              "type": "address"
            },
            {
              "internalType": "address",
              "name": "seller",
              "type": "address"
            },
            {
              "internalType": "uint256",
              "name": "price",
              "type": "uint256"
            },
            {
              "internalType": "bool",
              "name": "listed",
              "type": "bool"
            }
          ],
          "internalType": "struct NFTMarketplace.ListedToken",
          "name": "",
          "type": "tuple"
        }
      ],
      "stateMutability": "view",
      "type": "function"
    },
    {
      "inputs": [],
      "name": "getMyNFTs",
      "outputs": [
        {
          "components": [
            {
              "internalType": "uint256",
              "name": "tokenId",
              "type": "uint256"
            },
            {
              "internalType": "address",
              "name": "owner",
              "type": "address"
            },
            {
              "internalType": "address",
              "name": "seller",
              "type": "address"
            },
            {
              "internalType": "uint256",
              "name": "price",
              "type": "uint256"
            },
            {
              "internalType": "bool",
              "name": "listed",
              "type": "bool"
            }
          ],
          "internalType": "struct NFTMarketplace.ListedToken[]",
          "name": "",
          "type": "tuple[]"
        }
      ],
      "stateMutability": "view",
      "type": "function"
    },
    {
      "inputs": [
        {
          "internalType": "uint256",
          "name": "",
          "type": "uint256"
        }
      ],
      "name": "idToListedToken",
      "outputs": [
        {
          "internalType": "uint256",
          "name": "tokenId",
          "type": "uint256"
        },
        {
          "internalType": "address",
          "name": "owner",
          "type": "address"
        },
        {
          "internalType": "address",
          "name": "seller",
          "type": "address"
        },
        {
          "internalType": "uint256",
          "name": "price",
          "type": "uint256"
        },
        {
          "internalType": "bool",
          "name": "listed",
          "type": "bool"
        }
      ],
      "stateMutability": "view",
      "type": "function"
    },
    {
      "inputs": [
        {
          "internalType": "address",
          "name": "owner",
          "type": "address"
        },
        {
          "internalType": "address",
          "name": "operator",
          "type": "address"
        }
      ],
      "name": "isApprovedForAll",
      "outputs": [
        {
          "internalType": "bool",
          "name": "",
          "type": "bool"
        }
      ],
      "stateMutability": "view",
      "type": "function"
    },
    {
      "inputs": [],
      "name": "name",
      "outputs": [
        {
          "internalType": "string",
          "name": "",
          "type": "string"
        }
      ],
      "stateMutability": "view",
      "type": "function"
    },
    {
      "inputs": [],
      "name": "owner",
      "outputs": [
        {
          "internalType": "address",
          "name": "",
          "type": "address"
        }
      ],
      "stateMutability": "view",
      "type": "function"
    },
    {
      "inputs": [
        {
          "internalType": "uint256",
          "name": "tokenId",
          "type": "uint256"
        }
      ],
      "name": "ownerOf",
      "outputs": [
        {
          "internalType": "address",
          "name": "",
          "type": "address"
        }
      ],
      "stateMutability": "view",
      "type": "function"
    },
    {
      "inputs": [],
      "name": "renounceOwnership",
      "outputs": [],
      "stateMutability": "nonpayable",
      "type": "function"
    },
    {
      "inputs": [
        {
          "internalType": "address",
          "name": "from",
          "type": "address"
        },
        {
          "internalType": "address",
          "name": "to",
          "type": "address"
        },
        {
          "internalType": "uint256",
          "name": "tokenId",
          "type": "uint256"
        }
      ],
      "name": "safeTransferFrom",
      "outputs": [],
      "stateMutability": "nonpayable",
      "type": "function"
    },
    {
      "inputs": [
        {
          "internalType": "address",
          "name": "from",
          "type": "address"
        },
        {
          "internalType": "address",
          "name": "to",
          "type": "address"
        },
        {
          "internalType": "uint256",
          "name": "tokenId",
          "type": "uint256"
        },
        {
          "internalType": "bytes",
          "name": "data",
          "type": "bytes"
        }
      ],
      "name": "safeTransferFrom",
      "outputs": [],
      "stateMutability": "nonpayable",
      "type": "function"
    },
    {
      "inputs": [
        {
          "internalType": "address",
          "name": "operator",
          "type": "address"
        },
        {
          "internalType": "bool",
          "name": "approved",
          "type": "bool"
        }
      ],
      "name": "setApprovalForAll",
      "outputs": [],
      "stateMutability": "nonpayable",
      "type": "function"
    },
    {
      "inputs": [
        {
          "internalType": "bytes4",
          "name": "interfaceId",
          "type": "bytes4"
        }
      ],
      "name": "supportsInterface",
      "outputs": [
        {
          "internalType": "bool",
          "name": "",
          "type": "bool"
        }
      ],
      "stateMutability": "view",
      "type": "function"
    },
    {
      "inputs": [],
      "name": "symbol",
      "outputs": [
        {
          "internalType": "string",
          "name": "",
          "type": "string"
        }
      ],
      "stateMutability": "view",
      "type": "function"
    },
    {
      "inputs": [
        {
          "internalType": "uint256",
          "name": "tokenId",
          "type": "uint256"
        }
      ],
      "name": "tokenURI",
      "outputs": [
        {
          "internalType": "string",
          "name": "",
          "type": "string"
        }
      ],
      "stateMutability": "view",
      "type": "function"
    },
    {
      "inputs": [
        {
          "internalType": "address",
          "name": "from",
          "type": "address"
        },
        {
          "internalType": "address",
          "name": "to",
          "type": "address"
        },
        {
          "internalType": "uint256",
          "name": "tokenId",
          "type": "uint256"
        }
      ],
      "name": "transferFrom",
      "outputs": [],
      "stateMutability": "nonpayable",
      "type": "function"
    },
    {
      "inputs": [
        {
          "internalType": "address",
          "name": "newOwner",
          "type": "address"
        }
      ],
      "name": "transferOwnership",
      "outputs": [],
      "stateMutability": "nonpayable",
      "type": "function"
    },
    {
      "inputs": [
        {
          "internalType": "uint256",
          "name": "_newListPrice",
          "type": "uint256"
        }
      ],
      "name": "updateListPrice",
      "outputs": [],
      "stateMutability": "nonpayable",
      "type": "function"
    },
    {
      "inputs": [
        {
          "internalType": "uint256",
          "name": "_value",
          "type": "uint256"
        }
      ],
      "name": "withdraw",
      "outputs": [],
      "stateMutability": "payable",
      "type": "function"
    }
  ],
  "bytecode": "0x608060405266038d7ea4c680006009553480156200001c57600080fd5b506040518060400160405280600f81526020017f4e4654204d61726b6574706c61636500000000000000000000000000000000008152506040518060400160405280600481526020017f4e46544d0000000000000000000000000000000000000000000000000000000081525081600090816200009a91906200044a565b508060019081620000ac91906200044a565b505050620000cf620000c3620000ec60201b60201c565b620000f460201b60201c565b620000e66008620001ba60201b6200184a1760201c565b62000531565b600033905090565b6000600760009054906101000a900473ffffffffffffffffffffffffffffffffffffffff16905081600760006101000a81548173ffffffffffffffffffffffffffffffffffffffff021916908373ffffffffffffffffffffffffffffffffffffffff1602179055508173ffffffffffffffffffffffffffffffffffffffff168173ffffffffffffffffffffffffffffffffffffffff167f8be0079c531659141344cd1fd0a4f28419497f9722a3daafe3b4186f6b6457e060405160405180910390a35050565b6001816000016000828254019250508190555050565b600081519050919050565b7f4e487b7100000000000000000000000000000000000000000000000000000000600052604160045260246000fd5b7f4e487b7100000000000000000000000000000000000000000000000000000000600052602260045260246000fd5b600060028204905060018216806200025257607f821691505b6020821081036200026857620002676200020a565b5b50919050565b60008190508160005260206000209050919050565b60006020601f8301049050919050565b600082821b905092915050565b600060088302620002d27fffffffffffffffffffffffffffffffffffffffffffffffffffffffffffffffff8262000293565b620002de868362000293565b95508019841693508086168417925050509392505050565b6000819050919050565b6000819050919050565b60006200032b620003256200031f84620002f6565b62000300565b620002f6565b9050919050565b6000819050919050565b62000347836200030a565b6200035f620003568262000332565b848454620002a0565b825550505050565b600090565b6200037662000367565b620003838184846200033c565b505050565b5b81811015620003ab576200039f6000826200036c565b60018101905062000389565b5050565b601f821115620003fa57620003c4816200026e565b620003cf8462000283565b81016020851015620003df578190505b620003f7620003ee8562000283565b83018262000388565b50505b505050565b600082821c905092915050565b60006200041f60001984600802620003ff565b1980831691505092915050565b60006200043a83836200040c565b9150826002028217905092915050565b6200045582620001d0565b67ffffffffffffffff811115620004715762000470620001db565b5b6200047d825462000239565b6200048a828285620003af565b600060209050601f831160018114620004c25760008415620004ad578287015190505b620004b985826200042c565b86555062000529565b601f198416620004d2866200026e565b60005b82811015620004fc57848901518255600182019150602085019450602081019050620004d5565b868310156200051c578489015162000518601f8916826200040c565b8355505b6001600288020188555050505b505050505050565b61439580620005416000396000f3fe6080604052600436106101815760003560e01c8063715018a6116100d1578063c322579c1161008a578063e57a497a11610064578063e57a497a14610545578063e985e9c514610586578063eda187dd146105c3578063f2fde38b1461060057610181565b8063c322579c146104b4578063c87b56dd146104dd578063e0391b091461051a57610181565b8063715018a6146103d957806372b3b620146103f05780638da5cb5b1461040c57806395d89b4114610437578063a22cb46514610462578063b88d4fde1461048b57610181565b80632e1a7d4d1161013e578063629cb2e411610118578063629cb2e4146103095780636352211e1461033457806368f1945f1461037157806370a082311461039c57610181565b80632e1a7d4d1461029957806342842e0e146102b557806356189236146102de57610181565b806301ffc9a71461018657806306fdde03146101c3578063081812fc146101ee578063095ea7b31461022b57806323b872dd146102545780632d296bf11461027d575b600080fd5b34801561019257600080fd5b506101ad60048036038101906101a89190612976565b610629565b6040516101ba91906129be565b60405180910390f35b3480156101cf57600080fd5b506101d861070b565b6040516101e59190612a69565b60405180910390f35b3480156101fa57600080fd5b5061021560048036038101906102109190612ac1565b61079d565b6040516102229190612b2f565b60405180910390f35b34801561023757600080fd5b50610252600480360381019061024d9190612b76565b6107e3565b005b34801561026057600080fd5b5061027b60048036038101906102769190612bb6565b6108fa565b005b61029760048036038101906102929190612ac1565b61095a565b005b6102b360048036038101906102ae9190612ac1565b610bc4565b005b3480156102c157600080fd5b506102dc60048036038101906102d79190612bb6565b610d09565b005b3480156102ea57600080fd5b506102f3610d29565b6040516103009190612c18565b60405180910390f35b34801561031557600080fd5b5061031e610d3a565b60405161032b9190612d77565b60405180910390f35b34801561034057600080fd5b5061035b60048036038101906103569190612ac1565b610fd0565b6040516103689190612b2f565b60405180910390f35b34801561037d57600080fd5b50610386611081565b6040516103939190612c18565b60405180910390f35b3480156103a857600080fd5b506103c360048036038101906103be9190612d99565b61108b565b6040516103d09190612c18565b60405180910390f35b3480156103e557600080fd5b506103ee611142565b005b61040a60048036038101906104059190612efb565b611156565b005b34801561041857600080fd5b50610421611191565b60405161042e9190612b2f565b60405180910390f35b34801561044357600080fd5b5061044c6111bb565b6040516104599190612a69565b60405180910390f35b34801561046e57600080fd5b5061048960048036038101906104849190612f83565b61124d565b005b34801561049757600080fd5b506104b260048036038101906104ad9190613064565b611263565b005b3480156104c057600080fd5b506104db60048036038101906104d69190612ac1565b6112c5565b005b3480156104e957600080fd5b5061050460048036038101906104ff9190612ac1565b6112d7565b6040516105119190612a69565b60405180910390f35b34801561052657600080fd5b5061052f6113e9565b60405161053c9190612d77565b60405180910390f35b34801561055157600080fd5b5061056c60048036038101906105679190612ac1565b6115a8565b60405161057d9594939291906130e7565b60405180910390f35b34801561059257600080fd5b506105ad60048036038101906105a8919061313a565b61162b565b6040516105ba91906129be565b60405180910390f35b3480156105cf57600080fd5b506105ea60048036038101906105e59190612ac1565b6116bf565b6040516105f791906131e2565b60405180910390f35b34801561060c57600080fd5b5061062760048036038101906106229190612d99565b6117c7565b005b60007f80ac58cd000000000000000000000000000000000000000000000000000000007bffffffffffffffffffffffffffffffffffffffffffffffffffffffff1916827bffffffffffffffffffffffffffffffffffffffffffffffffffffffff191614806106f457507f5b5e139f000000000000000000000000000000000000000000000000000000007bffffffffffffffffffffffffffffffffffffffffffffffffffffffff1916827bffffffffffffffffffffffffffffffffffffffffffffffffffffffff1916145b80610704575061070382611860565b5b9050919050565b60606000805461071a9061322c565b80601f01602080910402602001604051908101604052809291908181526020018280546107469061322c565b80156107935780601f1061076857610100808354040283529160200191610793565b820191906000526020600020905b81548152906001019060200180831161077657829003601f168201915b5050505050905090565b60006107a8826118ca565b6004600083815260200190815260200160002060009054906101000a900473ffffffffffffffffffffffffffffffffffffffff169050919050565b60006107ee82610fd0565b90508073ffffffffffffffffffffffffffffffffffffffff168373ffffffffffffffffffffffffffffffffffffffff160361085e576040517f08c379a0000000000000000000000000000000000000000000000000000000008152600401610855906132cf565b60405180910390fd5b8073ffffffffffffffffffffffffffffffffffffffff1661087d611915565b73ffffffffffffffffffffffffffffffffffffffff1614806108ac57506108ab816108a6611915565b61162b565b5b6108eb576040517f08c379a00000000000000000000000000000000000000000000000000000000081526004016108e290613361565b60405180910390fd5b6108f5838361191d565b505050565b61090b610905611915565b826119d6565b61094a576040517f08c379a0000000000000000000000000000000000000000000000000000000008152600401610941906133f3565b60405180910390fd5b610955838383611a6b565b505050565b6000600a60008381526020019081526020016000206003015490506000600a600084815260200190815260200160002060020160009054906101000a900473ffffffffffffffffffffffffffffffffffffffff1690508134146109f2576040517f08c379a00000000000000000000000000000000000000000000000000000000081526004016109e990613485565b60405180910390fd5b33600a600085815260200190815260200160002060020160006101000a81548173ffffffffffffffffffffffffffffffffffffffff021916908373ffffffffffffffffffffffffffffffffffffffff160217905550610a52303385611a6b565b610a5c30846107e3565b6000610a66611191565b73ffffffffffffffffffffffffffffffffffffffff16600954604051610a8b906134d6565b60006040518083038185875af1925050503d8060008114610ac8576040519150601f19603f3d011682016040523d82523d6000602084013e610acd565b606091505b5050905080610b11576040517f08c379a0000000000000000000000000000000000000000000000000000000008152600401610b089061355d565b60405180910390fd5b60008273ffffffffffffffffffffffffffffffffffffffff1634604051610b37906134d6565b60006040518083038185875af1925050503d8060008114610b74576040519150601f19603f3d011682016040523d82523d6000602084013e610b79565b606091505b5050905080610bbd576040517f08c379a0000000000000000000000000000000000000000000000000000000008152600401610bb4906135c9565b60405180910390fd5b5050505050565b610bcc611cd1565b60008111610c0f576040517f08c379a0000000000000000000000000000000000000000000000000000000008152600401610c069061365b565b60405180910390fd5b47811115610c52576040517f08c379a0000000000000000000000000000000000000000000000000000000008152600401610c49906136c7565b60405180910390fd5b6000610c5c611191565b73ffffffffffffffffffffffffffffffffffffffff1682604051610c7f906134d6565b60006040518083038185875af1925050503d8060008114610cbc576040519150601f19603f3d011682016040523d82523d6000602084013e610cc1565b606091505b5050905080610d05576040517f08c379a0000000000000000000000000000000000000000000000000000000008152600401610cfc90613733565b60405180910390fd5b5050565b610d2483838360405180602001604052806000815250611263565b505050565b6000610d356008611d4f565b905090565b60606000610d486008611d4f565b905060008167ffffffffffffffff811115610d6657610d65612dd0565b5b604051908082528060200260200182016040528015610d9f57816020015b610d8c6128ad565b815260200190600190039081610d845790505b509050600080600190505b838111610fc6573373ffffffffffffffffffffffffffffffffffffffff16600a600083815260200190815260200160002060010160009054906101000a900473ffffffffffffffffffffffffffffffffffffffff1673ffffffffffffffffffffffffffffffffffffffff161480610e8257503373ffffffffffffffffffffffffffffffffffffffff16600a600083815260200190815260200160002060020160009054906101000a900473ffffffffffffffffffffffffffffffffffffffff1673ffffffffffffffffffffffffffffffffffffffff16145b15610fb3576000600a60008381526020019081526020016000209050806040518060a0016040529081600082015481526020016001820160009054906101000a900473ffffffffffffffffffffffffffffffffffffffff1673ffffffffffffffffffffffffffffffffffffffff1673ffffffffffffffffffffffffffffffffffffffff1681526020016002820160009054906101000a900473ffffffffffffffffffffffffffffffffffffffff1673ffffffffffffffffffffffffffffffffffffffff1673ffffffffffffffffffffffffffffffffffffffff168152602001600382015481526020016004820160009054906101000a900460ff161515151581525050848481518110610f9857610f97613753565b5b60200260200101819052508280610fae906137b1565b935050505b8080610fbe906137b1565b915050610daa565b5081935050505090565b6000806002600084815260200190815260200160002060009054906101000a900473ffffffffffffffffffffffffffffffffffffffff169050600073ffffffffffffffffffffffffffffffffffffffff168173ffffffffffffffffffffffffffffffffffffffff1603611078576040517f08c379a000000000000000000000000000000000000000000000000000000000815260040161106f90613845565b60405180910390fd5b80915050919050565b6000600954905090565b60008073ffffffffffffffffffffffffffffffffffffffff168273ffffffffffffffffffffffffffffffffffffffff16036110fb576040517f08c379a00000000000000000000000000000000000000000000000000000000081526004016110f2906138d7565b60405180910390fd5b600360008373ffffffffffffffffffffffffffffffffffffffff1673ffffffffffffffffffffffffffffffffffffffff168152602001908152602001600020549050919050565b61114a611cd1565b6111546000611d5d565b565b60006111626008611d4f565b905061116e3382611e23565b6111788184611e41565b6111828183611eae565b61118c600861184a565b505050565b6000600760009054906101000a900473ffffffffffffffffffffffffffffffffffffffff16905090565b6060600180546111ca9061322c565b80601f01602080910402602001604051908101604052809291908181526020018280546111f69061322c565b80156112435780601f1061121857610100808354040283529160200191611243565b820191906000526020600020905b81548152906001019060200180831161122657829003601f168201915b5050505050905090565b61125f611258611915565b83836120b2565b5050565b61127461126e611915565b836119d6565b6112b3576040517f08c379a00000000000000000000000000000000000000000000000000000000081526004016112aa906133f3565b60405180910390fd5b6112bf8484848461221e565b50505050565b6112cd611cd1565b8060098190555050565b60606112e2826118ca565b60006006600084815260200190815260200160002080546113029061322c565b80601f016020809104026020016040519081016040528092919081815260200182805461132e9061322c565b801561137b5780601f106113505761010080835404028352916020019161137b565b820191906000526020600020905b81548152906001019060200180831161135e57829003601f168201915b50505050509050600061138c61227a565b905060008151036113a15781925050506113e4565b6000825111156113d65780826040516020016113be929190613933565b604051602081830303815290604052925050506113e4565b6113df84612291565b925050505b919050565b606060006113f76008611d4f565b905060008167ffffffffffffffff81111561141557611414612dd0565b5b60405190808252806020026020018201604052801561144e57816020015b61143b6128ad565b8152602001906001900390816114335790505b509050600080600190505b83811161159e576000600a60008381526020019081526020016000209050806040518060a0016040529081600082015481526020016001820160009054906101000a900473ffffffffffffffffffffffffffffffffffffffff1673ffffffffffffffffffffffffffffffffffffffff1673ffffffffffffffffffffffffffffffffffffffff1681526020016002820160009054906101000a900473ffffffffffffffffffffffffffffffffffffffff1673ffffffffffffffffffffffffffffffffffffffff1673ffffffffffffffffffffffffffffffffffffffff168152602001600382015481526020016004820160009054906101000a900460ff16151515158152505084848151811061157157611570613753565b5b60200260200101819052508280611587906137b1565b935050508080611596906137b1565b915050611459565b5081935050505090565b600a6020528060005260406000206000915090508060000154908060010160009054906101000a900473ffffffffffffffffffffffffffffffffffffffff16908060020160009054906101000a900473ffffffffffffffffffffffffffffffffffffffff16908060030154908060040160009054906101000a900460ff16905085565b6000600560008473ffffffffffffffffffffffffffffffffffffffff1673ffffffffffffffffffffffffffffffffffffffff16815260200190815260200160002060008373ffffffffffffffffffffffffffffffffffffffff1673ffffffffffffffffffffffffffffffffffffffff16815260200190815260200160002060009054906101000a900460ff16905092915050565b6116c76128ad565b600a60008381526020019081526020016000206040518060a0016040529081600082015481526020016001820160009054906101000a900473ffffffffffffffffffffffffffffffffffffffff1673ffffffffffffffffffffffffffffffffffffffff1673ffffffffffffffffffffffffffffffffffffffff1681526020016002820160009054906101000a900473ffffffffffffffffffffffffffffffffffffffff1673ffffffffffffffffffffffffffffffffffffffff1673ffffffffffffffffffffffffffffffffffffffff168152602001600382015481526020016004820160009054906101000a900460ff1615151515815250509050919050565b6117cf611cd1565b600073ffffffffffffffffffffffffffffffffffffffff168173ffffffffffffffffffffffffffffffffffffffff160361183e576040517f08c379a0000000000000000000000000000000000000000000000000000000008152600401611835906139c9565b60405180910390fd5b61184781611d5d565b50565b6001816000016000828254019250508190555050565b60007f01ffc9a7000000000000000000000000000000000000000000000000000000007bffffffffffffffffffffffffffffffffffffffffffffffffffffffff1916827bffffffffffffffffffffffffffffffffffffffffffffffffffffffff1916149050919050565b6118d3816122f9565b611912576040517f08c379a000000000000000000000000000000000000000000000000000000000815260040161190990613845565b60405180910390fd5b50565b600033905090565b816004600083815260200190815260200160002060006101000a81548173ffffffffffffffffffffffffffffffffffffffff021916908373ffffffffffffffffffffffffffffffffffffffff160217905550808273ffffffffffffffffffffffffffffffffffffffff1661199083610fd0565b73ffffffffffffffffffffffffffffffffffffffff167f8c5be1e5ebec7d5bd14f71427d1e84f3dd0314c0f7b2291e5b200ac8c7c3b92560405160405180910390a45050565b6000806119e283610fd0565b90508073ffffffffffffffffffffffffffffffffffffffff168473ffffffffffffffffffffffffffffffffffffffff161480611a245750611a23818561162b565b5b80611a6257508373ffffffffffffffffffffffffffffffffffffffff16611a4a8461079d565b73ffffffffffffffffffffffffffffffffffffffff16145b91505092915050565b8273ffffffffffffffffffffffffffffffffffffffff16611a8b82610fd0565b73ffffffffffffffffffffffffffffffffffffffff1614611ae1576040517f08c379a0000000000000000000000000000000000000000000000000000000008152600401611ad890613a5b565b60405180910390fd5b600073ffffffffffffffffffffffffffffffffffffffff168273ffffffffffffffffffffffffffffffffffffffff1603611b50576040517f08c379a0000000000000000000000000000000000000000000000000000000008152600401611b4790613aed565b60405180910390fd5b611b5b838383612365565b611b6660008261191d565b6001600360008573ffffffffffffffffffffffffffffffffffffffff1673ffffffffffffffffffffffffffffffffffffffff1681526020019081526020016000206000828254611bb69190613b0d565b925050819055506001600360008473ffffffffffffffffffffffffffffffffffffffff1673ffffffffffffffffffffffffffffffffffffffff1681526020019081526020016000206000828254611c0d9190613b41565b92505081905550816002600083815260200190815260200160002060006101000a81548173ffffffffffffffffffffffffffffffffffffffff021916908373ffffffffffffffffffffffffffffffffffffffff160217905550808273ffffffffffffffffffffffffffffffffffffffff168473ffffffffffffffffffffffffffffffffffffffff167fddf252ad1be2c89b69c2b068fc378daa952ba7f163c4a11628f55a4df523b3ef60405160405180910390a4611ccc83838361236a565b505050565b611cd9611915565b73ffffffffffffffffffffffffffffffffffffffff16611cf7611191565b73ffffffffffffffffffffffffffffffffffffffff1614611d4d576040517f08c379a0000000000000000000000000000000000000000000000000000000008152600401611d4490613bc1565b60405180910390fd5b565b600081600001549050919050565b6000600760009054906101000a900473ffffffffffffffffffffffffffffffffffffffff16905081600760006101000a81548173ffffffffffffffffffffffffffffffffffffffff021916908373ffffffffffffffffffffffffffffffffffffffff1602179055508173ffffffffffffffffffffffffffffffffffffffff168173ffffffffffffffffffffffffffffffffffffffff167f8be0079c531659141344cd1fd0a4f28419497f9722a3daafe3b4186f6b6457e060405160405180910390a35050565b611e3d82826040518060200160405280600081525061236f565b5050565b611e4a826122f9565b611e89576040517f08c379a0000000000000000000000000000000000000000000000000000000008152600401611e8090613c53565b60405180910390fd5b80600660008481526020019081526020016000209081611ea99190613e1f565b505050565b6009543414611ef2576040517f08c379a0000000000000000000000000000000000000000000000000000000008152600401611ee990613f63565b60405180910390fd5b60008111611f35576040517f08c379a0000000000000000000000000000000000000000000000000000000008152600401611f2c90613ff5565b60405180910390fd5b6040518060a001604052808381526020013073ffffffffffffffffffffffffffffffffffffffff1681526020013373ffffffffffffffffffffffffffffffffffffffff16815260200182815260200160011515815250600a60008481526020019081526020016000206000820151816000015560208201518160010160006101000a81548173ffffffffffffffffffffffffffffffffffffffff021916908373ffffffffffffffffffffffffffffffffffffffff16021790555060408201518160020160006101000a81548173ffffffffffffffffffffffffffffffffffffffff021916908373ffffffffffffffffffffffffffffffffffffffff1602179055506060820151816003015560808201518160040160006101000a81548160ff02191690831515021790555090505061206e333084611a6b565b7fa73d4a29f26d1dbad94ebe8ad5cb19b4e15a5b50565d091cce12997f3ab0c9318230338460016040516120a69594939291906130e7565b60405180910390a15050565b8173ffffffffffffffffffffffffffffffffffffffff168373ffffffffffffffffffffffffffffffffffffffff1603612120576040517f08c379a000000000000000000000000000000000000000000000000000000000815260040161211790614061565b60405180910390fd5b80600560008573ffffffffffffffffffffffffffffffffffffffff1673ffffffffffffffffffffffffffffffffffffffff16815260200190815260200160002060008473ffffffffffffffffffffffffffffffffffffffff1673ffffffffffffffffffffffffffffffffffffffff16815260200190815260200160002060006101000a81548160ff0219169083151502179055508173ffffffffffffffffffffffffffffffffffffffff168373ffffffffffffffffffffffffffffffffffffffff167f17307eab39ab6107e8899845ad3d59bd9653f200f220920489ca2b5937696c318360405161221191906129be565b60405180910390a3505050565b612229848484611a6b565b612235848484846123ca565b612274576040517f08c379a000000000000000000000000000000000000000000000000000000000815260040161226b906140f3565b60405180910390fd5b50505050565b606060405180602001604052806000815250905090565b606061229c826118ca565b60006122a661227a565b905060008151116122c657604051806020016040528060008152506122f1565b806122d084612551565b6040516020016122e1929190613933565b6040516020818303038152906040525b915050919050565b60008073ffffffffffffffffffffffffffffffffffffffff166002600084815260200190815260200160002060009054906101000a900473ffffffffffffffffffffffffffffffffffffffff1673ffffffffffffffffffffffffffffffffffffffff1614159050919050565b505050565b505050565b61237983836126b1565b61238660008484846123ca565b6123c5576040517f08c379a00000000000000000000000000000000000000000000000000000000081526004016123bc906140f3565b60405180910390fd5b505050565b60006123eb8473ffffffffffffffffffffffffffffffffffffffff1661288a565b15612544578373ffffffffffffffffffffffffffffffffffffffff1663150b7a02612414611915565b8786866040518563ffffffff1660e01b81526004016124369493929190614168565b6020604051808303816000875af192505050801561247257506040513d601f19601f8201168201806040525081019061246f91906141c9565b60015b6124f4573d80600081146124a2576040519150601f19603f3d011682016040523d82523d6000602084013e6124a7565b606091505b5060008151036124ec576040517f08c379a00000000000000000000000000000000000000000000000000000000081526004016124e3906140f3565b60405180910390fd5b805181602001fd5b63150b7a0260e01b7bffffffffffffffffffffffffffffffffffffffffffffffffffffffff1916817bffffffffffffffffffffffffffffffffffffffffffffffffffffffff191614915050612549565b600190505b949350505050565b606060008203612598576040518060400160405280600181526020017f300000000000000000000000000000000000000000000000000000000000000081525090506126ac565b600082905060005b600082146125ca5780806125b3906137b1565b915050600a826125c39190614225565b91506125a0565b60008167ffffffffffffffff8111156125e6576125e5612dd0565b5b6040519080825280601f01601f1916602001820160405280156126185781602001600182028036833780820191505090505b5090505b600085146126a5576001826126319190613b0d565b9150600a856126409190614256565b603061264c9190613b41565b60f81b81838151811061266257612661613753565b5b60200101907effffffffffffffffffffffffffffffffffffffffffffffffffffffffffffff1916908160001a905350600a8561269e9190614225565b945061261c565b8093505050505b919050565b600073ffffffffffffffffffffffffffffffffffffffff168273ffffffffffffffffffffffffffffffffffffffff1603612720576040517f08c379a0000000000000000000000000000000000000000000000000000000008152600401612717906142d3565b60405180910390fd5b612729816122f9565b15612769576040517f08c379a00000000000000000000000000000000000000000000000000000000081526004016127609061433f565b60405180910390fd5b61277560008383612365565b6001600360008473ffffffffffffffffffffffffffffffffffffffff1673ffffffffffffffffffffffffffffffffffffffff16815260200190815260200160002060008282546127c59190613b41565b92505081905550816002600083815260200190815260200160002060006101000a81548173ffffffffffffffffffffffffffffffffffffffff021916908373ffffffffffffffffffffffffffffffffffffffff160217905550808273ffffffffffffffffffffffffffffffffffffffff16600073ffffffffffffffffffffffffffffffffffffffff167fddf252ad1be2c89b69c2b068fc378daa952ba7f163c4a11628f55a4df523b3ef60405160405180910390a46128866000838361236a565b5050565b6000808273ffffffffffffffffffffffffffffffffffffffff163b119050919050565b6040518060a0016040528060008152602001600073ffffffffffffffffffffffffffffffffffffffff168152602001600073ffffffffffffffffffffffffffffffffffffffff168152602001600081526020016000151581525090565b6000604051905090565b600080fd5b600080fd5b60007fffffffff0000000000000000000000000000000000000000000000000000000082169050919050565b6129538161291e565b811461295e57600080fd5b50565b6000813590506129708161294a565b92915050565b60006020828403121561298c5761298b612914565b5b600061299a84828501612961565b91505092915050565b60008115159050919050565b6129b8816129a3565b82525050565b60006020820190506129d360008301846129af565b92915050565b600081519050919050565b600082825260208201905092915050565b60005b83811015612a135780820151818401526020810190506129f8565b60008484015250505050565b6000601f19601f8301169050919050565b6000612a3b826129d9565b612a4581856129e4565b9350612a558185602086016129f5565b612a5e81612a1f565b840191505092915050565b60006020820190508181036000830152612a838184612a30565b905092915050565b6000819050919050565b612a9e81612a8b565b8114612aa957600080fd5b50565b600081359050612abb81612a95565b92915050565b600060208284031215612ad757612ad6612914565b5b6000612ae584828501612aac565b91505092915050565b600073ffffffffffffffffffffffffffffffffffffffff82169050919050565b6000612b1982612aee565b9050919050565b612b2981612b0e565b82525050565b6000602082019050612b446000830184612b20565b92915050565b612b5381612b0e565b8114612b5e57600080fd5b50565b600081359050612b7081612b4a565b92915050565b60008060408385031215612b8d57612b8c612914565b5b6000612b9b85828601612b61565b9250506020612bac85828601612aac565b9150509250929050565b600080600060608486031215612bcf57612bce612914565b5b6000612bdd86828701612b61565b9350506020612bee86828701612b61565b9250506040612bff86828701612aac565b9150509250925092565b612c1281612a8b565b82525050565b6000602082019050612c2d6000830184612c09565b92915050565b600081519050919050565b600082825260208201905092915050565b6000819050602082019050919050565b612c6881612a8b565b82525050565b612c7781612b0e565b82525050565b612c86816129a3565b82525050565b60a082016000820151612ca26000850182612c5f565b506020820151612cb56020850182612c6e565b506040820151612cc86040850182612c6e565b506060820151612cdb6060850182612c5f565b506080820151612cee6080850182612c7d565b50505050565b6000612d008383612c8c565b60a08301905092915050565b6000602082019050919050565b6000612d2482612c33565b612d2e8185612c3e565b9350612d3983612c4f565b8060005b83811015612d6a578151612d518882612cf4565b9750612d5c83612d0c565b925050600181019050612d3d565b5085935050505092915050565b60006020820190508181036000830152612d918184612d19565b905092915050565b600060208284031215612daf57612dae612914565b5b6000612dbd84828501612b61565b91505092915050565b600080fd5b600080fd5b7f4e487b7100000000000000000000000000000000000000000000000000000000600052604160045260246000fd5b612e0882612a1f565b810181811067ffffffffffffffff82111715612e2757612e26612dd0565b5b80604052505050565b6000612e3a61290a565b9050612e468282612dff565b919050565b600067ffffffffffffffff821115612e6657612e65612dd0565b5b612e6f82612a1f565b9050602081019050919050565b82818337600083830152505050565b6000612e9e612e9984612e4b565b612e30565b905082815260208101848484011115612eba57612eb9612dcb565b5b612ec5848285612e7c565b509392505050565b600082601f830112612ee257612ee1612dc6565b5b8135612ef2848260208601612e8b565b91505092915050565b60008060408385031215612f1257612f11612914565b5b600083013567ffffffffffffffff811115612f3057612f2f612919565b5b612f3c85828601612ecd565b9250506020612f4d85828601612aac565b9150509250929050565b612f60816129a3565b8114612f6b57600080fd5b50565b600081359050612f7d81612f57565b92915050565b60008060408385031215612f9a57612f99612914565b5b6000612fa885828601612b61565b9250506020612fb985828601612f6e565b9150509250929050565b600067ffffffffffffffff821115612fde57612fdd612dd0565b5b612fe782612a1f565b9050602081019050919050565b600061300761300284612fc3565b612e30565b90508281526020810184848401111561302357613022612dcb565b5b61302e848285612e7c565b509392505050565b600082601f83011261304b5761304a612dc6565b5b813561305b848260208601612ff4565b91505092915050565b6000806000806080858703121561307e5761307d612914565b5b600061308c87828801612b61565b945050602061309d87828801612b61565b93505060406130ae87828801612aac565b925050606085013567ffffffffffffffff8111156130cf576130ce612919565b5b6130db87828801613036565b91505092959194509250565b600060a0820190506130fc6000830188612c09565b6131096020830187612b20565b6131166040830186612b20565b6131236060830185612c09565b61313060808301846129af565b9695505050505050565b6000806040838503121561315157613150612914565b5b600061315f85828601612b61565b925050602061317085828601612b61565b9150509250929050565b60a0820160008201516131906000850182612c5f565b5060208201516131a36020850182612c6e565b5060408201516131b66040850182612c6e565b5060608201516131c96060850182612c5f565b5060808201516131dc6080850182612c7d565b50505050565b600060a0820190506131f7600083018461317a565b92915050565b7f4e487b7100000000000000000000000000000000000000000000000000000000600052602260045260246000fd5b6000600282049050600182168061324457607f821691505b602082108103613257576132566131fd565b5b50919050565b7f4552433732313a20617070726f76616c20746f2063757272656e74206f776e6560008201527f7200000000000000000000000000000000000000000000000000000000000000602082015250565b60006132b96021836129e4565b91506132c48261325d565b604082019050919050565b600060208201905081810360008301526132e8816132ac565b9050919050565b7f4552433732313a20617070726f76652063616c6c6572206973206e6f7420746f60008201527f6b656e206f776e6572206e6f7220617070726f76656420666f7220616c6c0000602082015250565b600061334b603e836129e4565b9150613356826132ef565b604082019050919050565b6000602082019050818103600083015261337a8161333e565b9050919050565b7f4552433732313a2063616c6c6572206973206e6f7420746f6b656e206f776e6560008201527f72206e6f7220617070726f766564000000000000000000000000000000000000602082015250565b60006133dd602e836129e4565b91506133e882613381565b604082019050919050565b6000602082019050818103600083015261340c816133d0565b9050919050565b7f506c65617365207375626d6974207468652061736b696e67207072696365206960008201527f6e206f7264657220746f20636f6d706c65746520746865207075726368617365602082015250565b600061346f6040836129e4565b915061347a82613413565b604082019050919050565b6000602082019050818103600083015261349e81613462565b9050919050565b600081905092915050565b50565b60006134c06000836134a5565b91506134cb826134b0565b600082019050919050565b60006134e1826134b3565b9150819050919050565b7f4661696c2073656e64206c69737420707269636520666f7220636f6e7472616360008201527f74206f776e657200000000000000000000000000000000000000000000000000602082015250565b60006135476027836129e4565b9150613552826134eb565b604082019050919050565b600060208201905081810360008301526135768161353a565b9050919050565b7f4661696c2073656e64206e667420707269636520666f72206f776e6572000000600082015250565b60006135b3601d836129e4565b91506135be8261357d565b602082019050919050565b600060208201905081810360008301526135e2816135a6565b9050919050565b7f7769746864726177616c20616d6f756e74206d757374206265206d6f7265207460008201527f68616e207a65726f000000000000000000000000000000000000000000000000602082015250565b60006136456028836129e4565b9150613650826135e9565b604082019050919050565b6000602082019050818103600083015261367481613638565b9050919050565b7f6e6f2066756e647320746f207769746864726177000000000000000000000000600082015250565b60006136b16014836129e4565b91506136bc8261367b565b602082019050919050565b600060208201905081810360008301526136e0816136a4565b9050919050565b7f4661696c20746f20776974686472617700000000000000000000000000000000600082015250565b600061371d6010836129e4565b9150613728826136e7565b602082019050919050565b6000602082019050818103600083015261374c81613710565b9050919050565b7f4e487b7100000000000000000000000000000000000000000000000000000000600052603260045260246000fd5b7f4e487b7100000000000000000000000000000000000000000000000000000000600052601160045260246000fd5b60006137bc82612a8b565b91507fffffffffffffffffffffffffffffffffffffffffffffffffffffffffffffffff82036137ee576137ed613782565b5b600182019050919050565b7f4552433732313a20696e76616c696420746f6b656e2049440000000000000000600082015250565b600061382f6018836129e4565b915061383a826137f9565b602082019050919050565b6000602082019050818103600083015261385e81613822565b9050919050565b7f4552433732313a2061646472657373207a65726f206973206e6f74206120766160008201527f6c6964206f776e65720000000000000000000000000000000000000000000000602082015250565b60006138c16029836129e4565b91506138cc82613865565b604082019050919050565b600060208201905081810360008301526138f0816138b4565b9050919050565b600081905092915050565b600061390d826129d9565b61391781856138f7565b93506139278185602086016129f5565b80840191505092915050565b600061393f8285613902565b915061394b8284613902565b91508190509392505050565b7f4f776e61626c653a206e6577206f776e657220697320746865207a65726f206160008201527f6464726573730000000000000000000000000000000000000000000000000000602082015250565b60006139b36026836129e4565b91506139be82613957565b604082019050919050565b600060208201905081810360008301526139e2816139a6565b9050919050565b7f4552433732313a207472616e736665722066726f6d20696e636f72726563742060008201527f6f776e6572000000000000000000000000000000000000000000000000000000602082015250565b6000613a456025836129e4565b9150613a50826139e9565b604082019050919050565b60006020820190508181036000830152613a7481613a38565b9050919050565b7f4552433732313a207472616e7366657220746f20746865207a65726f2061646460008201527f7265737300000000000000000000000000000000000000000000000000000000602082015250565b6000613ad76024836129e4565b9150613ae282613a7b565b604082019050919050565b60006020820190508181036000830152613b0681613aca565b9050919050565b6000613b1882612a8b565b9150613b2383612a8b565b9250828203905081811115613b3b57613b3a613782565b5b92915050565b6000613b4c82612a8b565b9150613b5783612a8b565b9250828201905080821115613b6f57613b6e613782565b5b92915050565b7f4f776e61626c653a2063616c6c6572206973206e6f7420746865206f776e6572600082015250565b6000613bab6020836129e4565b9150613bb682613b75565b602082019050919050565b60006020820190508181036000830152613bda81613b9e565b9050919050565b7f45524337323155524953746f726167653a2055524920736574206f66206e6f6e60008201527f6578697374656e7420746f6b656e000000000000000000000000000000000000602082015250565b6000613c3d602e836129e4565b9150613c4882613be1565b604082019050919050565b60006020820190508181036000830152613c6c81613c30565b9050919050565b60008190508160005260206000209050919050565b60006020601f8301049050919050565b600082821b905092915050565b600060088302613cd57fffffffffffffffffffffffffffffffffffffffffffffffffffffffffffffffff82613c98565b613cdf8683613c98565b95508019841693508086168417925050509392505050565b6000819050919050565b6000613d1c613d17613d1284612a8b565b613cf7565b612a8b565b9050919050565b6000819050919050565b613d3683613d01565b613d4a613d4282613d23565b848454613ca5565b825550505050565b600090565b613d5f613d52565b613d6a818484613d2d565b505050565b5b81811015613d8e57613d83600082613d57565b600181019050613d70565b5050565b601f821115613dd357613da481613c73565b613dad84613c88565b81016020851015613dbc578190505b613dd0613dc885613c88565b830182613d6f565b50505b505050565b600082821c905092915050565b6000613df660001984600802613dd8565b1980831691505092915050565b6000613e0f8383613de5565b9150826002028217905092915050565b613e28826129d9565b67ffffffffffffffff811115613e4157613e40612dd0565b5b613e4b825461322c565b613e56828285613d92565b600060209050601f831160018114613e895760008415613e77578287015190505b613e818582613e03565b865550613ee9565b601f198416613e9786613c73565b60005b82811015613ebf57848901518255600182019150602085019450602081019050613e9a565b86831015613edc5784890151613ed8601f891682613de5565b8355505b6001600288020188555050505b505050505050565b7f486f706566756c6c792073656e64696e672074686520636f727265637420707260008201527f6963650000000000000000000000000000000000000000000000000000000000602082015250565b6000613f4d6023836129e4565b9150613f5882613ef1565b604082019050919050565b60006020820190508181036000830152613f7c81613f40565b9050919050565b7f4d616b652073757265207468652070726963652069736e2774206e656761746960008201527f7665000000000000000000000000000000000000000000000000000000000000602082015250565b6000613fdf6022836129e4565b9150613fea82613f83565b604082019050919050565b6000602082019050818103600083015261400e81613fd2565b9050919050565b7f4552433732313a20617070726f766520746f2063616c6c657200000000000000600082015250565b600061404b6019836129e4565b915061405682614015565b602082019050919050565b6000602082019050818103600083015261407a8161403e565b9050919050565b7f4552433732313a207472616e7366657220746f206e6f6e20455243373231526560008201527f63656976657220696d706c656d656e7465720000000000000000000000000000602082015250565b60006140dd6032836129e4565b91506140e882614081565b604082019050919050565b6000602082019050818103600083015261410c816140d0565b9050919050565b600081519050919050565b600082825260208201905092915050565b600061413a82614113565b614144818561411e565b93506141548185602086016129f5565b61415d81612a1f565b840191505092915050565b600060808201905061417d6000830187612b20565b61418a6020830186612b20565b6141976040830185612c09565b81810360608301526141a9818461412f565b905095945050505050565b6000815190506141c38161294a565b92915050565b6000602082840312156141df576141de612914565b5b60006141ed848285016141b4565b91505092915050565b7f4e487b7100000000000000000000000000000000000000000000000000000000600052601260045260246000fd5b600061423082612a8b565b915061423b83612a8b565b92508261424b5761424a6141f6565b5b828204905092915050565b600061426182612a8b565b915061426c83612a8b565b92508261427c5761427b6141f6565b5b828206905092915050565b7f4552433732313a206d696e7420746f20746865207a65726f2061646472657373600082015250565b60006142bd6020836129e4565b91506142c882614287565b602082019050919050565b600060208201905081810360008301526142ec816142b0565b9050919050565b7f4552433732313a20746f6b656e20616c7265616479206d696e74656400000000600082015250565b6000614329601c836129e4565b9150614334826142f3565b602082019050919050565b600060208201905081810360008301526143588161431c565b905091905056fea26469706673582212208ea70121b70a53c7d20e439621a108a08729f2730bfb0772f1f6a8977446a98464736f6c63430008110033",
  "linkReferences": {},
  "deployedLinkReferences": {}
}